:020000040800F2
:1000000050070020890100089F1200081D100008F9
:100010009D1200088F0200083F1500080000000034
:10002000000000000000000000000000A312000813
:100030009102000800000000A1120008A5120008AB
:10004000A3010008A3010008A3010008A301000800
:10005000A3010008A3010008A3010008A3010008F0
:10006000A3010008A3010008A3010008A3010008E0
:10007000A3010008A3010008A3010008A3010008D0
:10008000A3010008A3010008A3010008A3010008C0
:10009000A3010008A3010008A3010008A3010008B0
:1000A000A3010008A3010008A3010008A3010008A0
:1000B000A3010008A3010008A3010008A301000890
:1000C000A3010008A3010008A3010008A301000880
:1000D000A3010008A3010008A3010008A301000870
:1000E000A3010008A3010008A301000800F002F822
:1000F00000F03AF80AA090E8000C82448344AAF188
:100100000107DA4501D100F02FF8AFF2090EBAE885
:100110000F0013F0010F18BFFB1A43F0010318473B
:100120008C1C0000AC1C0000103A24BF78C878C1B9
:10013000FAD8520724BF30C830C144BF04680C60ED
:10014000704700000023002400250026103A28BF35
:1001500078C1FBD8520728BF30C148BF0B60704739
:100160001FB51FBD10B510BD00F058F81146FFF7C0
:10017000F7FF01F0F5F900F076F803B4FFF7F2FFAE
:1001800003BC00F07DF8000009488047094800479B
:10019000FEE7FEE7FEE7FEE7FEE7FEE7FEE7FEE737
:1001A000FEE7FEE704480549054A064B7047000094
:1001B000F9120008ED00000850010020500700204F
:1001C00050030020500300204FF0000200B51346FA
:1001D00094469646203922BFA0E80C50A0E80C5067
:1001E000B1F12001BFF4F7AF090728BFA0E80C5018
:1001F00048BF0CC05DF804EB890028BF40F8042B11
:1002000008BF704748BF20F8022B11F0804F18BF7D
:1002100000F8012B7047704770477047754600F033
:100220002BF8AE4605006946534620F00700854688
:1002300018B020B5FFF7B6FFBDE820404FF000062C
:100240004FF000074FF000084FF0000B21F00701BE
:10025000AC46ACE8C009ACE8C009ACE8C009ACE801
:10026000C0098D46704710B50446AFF300802046A4
:10027000BDE81040FFF781BF00487047F000002044
:1002800001491820ABBEFEE7260002007047FEE7DA
:10029000704772B6FEE7000070B5044600F008F93A
:1002A0000546601C02D004480078044400F000F9C0
:1002B000401BA042FAD370BD080000202DE9F84F82
:1002C000DFF8B8910024A9F1040B23460F2709F1A8
:1002D000040AABF1040EC9E00125A5402A40AA4258
:1002E0007DD1674ED1F804C0ACEB0608B44532D0DE
:1002F00014DCBCF1030F3AD009DCBCF1000F2AD0AA
:10030000BCF1010F1CD0BCF1020F31D11DE0BCF1DA
:10031000110F17D0BCF1120F2AD119E0B8F5881FC0
:1003200019D006DCB8F5803F15D0B8F5801F1FD175
:1003300011E0B8F5001F0ED0B8F5041F18D10AE07F
:10034000CB6815E0CB681B1D12E0CB6808330FE0CB
:10035000CB680C330CE08B682BB1012B4FF00803FA
:1003600003D0456104E0042302E0056100E00023BE
:10037000FF2A01D8064601E000F104064FEA840591
:1003800001D9A5F12005D6F8008007FA05FC28EA76
:100390000C0803FA05F548EA0508C6F800804D6820
:1003A000ED0062D5374DAE6946F00106AE61AD692C
:1003B00024F0030605F001050095334D06EB050C0E
:1003C000DCF80850A607360F07FA06F825EA0805F4
:1003D000DFF8B880404503D14FF0000817E044E053
:1003E000DFF8AC80404502D14FF001080FE0DFF8A4
:1003F000A480404502D14FF0020808E0DFF8988061
:10040000404502D14FF0030801E04FF0040808FA1C
:1004100006F848EA0508CCF808804D68D9F800606D
:10042000ED024D4601D5164300E096432E604D681F
:10043000DAF80060AD02554601D5164300E0964358
:100440002E604D68DBF80060AD035D4601D51643B4
:1004500000E096432E604D68DEF80060ED037546BF
:1004600001D5164300E096432E60641C0D682A46B1
:10047000E5407FF431AFBDE8F88F0000080401408B
:10048000000011100010024000000140000801406F
:10049000000C014000100140001401408068084039
:1004A00000D0012070470AB1016170470904FBE7E1
:1004B00001488068704700000800002002488168F9
:1004C000027811448160704708000020074810B589
:1004D000016841F010010160032000F067F80F206F
:1004E00000F006F800F024F8002010BD00200240C3
:1004F00070B50D4D04464FF47A712878B1FBF0F0D9
:100500000A490968B1FBF0F000F0AEFA48B9102CC6
:1005100007D200222146501E00F028F800206C600F
:1005200070BD012070BD00000800002014000020F4
:100530000C4808B5816941F001018161816901F0D0
:1005400001010091C16941F08051C161C06900F0B1
:10055000805000900448416821F0E06141F0007152
:10056000416008BD0010024000000140F0B40E4B95
:100570001B680C46C3F30223C3F10705042D00D901
:100580000425191D072901D2002300E0DB1E0126E6
:1005900006FA05F1491E214099409E40761E1640FC
:1005A0003143F0BC00F0CCBF0CED00E0064900F098
:1005B000070208684FF6FF03184040EA0220034A8A
:1005C00010430860704700000CED00E00000FA05E1
:1005D0002DE9F0470F46050061D0434E306800F02A
:1005E0000700B84209D2306820F007003843306075
:1005F000306800F00700B84251D128683B4C8107B1
:1006000012D5400703D5606840F4E0606060287848
:10061000000703D5606840F4605060606068A968B6
:1006200020F0F000084360602878C00728D0686890
:10063000012810D02168022810D0890700292EDA5D
:10064000616821F0030101436160FFF731FF8046DB
:1006500041F288390DE021688903EFE78901EDE770
:10066000FFF726FFA0EB0801494502D90320BDE8AA
:10067000F0876068696800F00C00B0EB810FEFD183
:10068000306800F00700B8420BD9306820F007004E
:1006900038433060306800F00700B84201D00120D4
:1006A000E5E72878400705D56068E96820F4E06050
:1006B000084360602878000706D56068296920F43F
:1006C000605040EAC100606000F018F86168084AB4
:1006D000C1F30311515CC840064908600648006830
:1006E000FFF706FF0020C2E7002002400010024092
:1006F0009A1D0008140000200C0000200E4A5168CA
:100700000E4801F00C03042B11D0082B0FD10C481C
:10071000C1F38343C903C05C0AD55168084AC1F3D9
:100720004041921E515C054A5043B0FBF1F07047C6
:1007300004494843704700000010024000127A004C
:100740008A1D000800093D002DE9F84F040070D013
:100750002078C04DC00749D06868C0F381000128E7
:1007600007D06868C0F38100022809D16868C00317
:1007700006D52868800339D560680028E7D035E0C1
:100780006068B0F5803F0BD010B1B0F5A02F11D04C
:10079000286820F480302860286820F4802002E057
:1007A000286840F480302860606890B1FFF780FED0
:1007B00006460AE0286840F480202860F0E700BF81
:1007C000FFF776FE801B642873D828688003F7D56E
:1007D0000CE0FFF76DFE064605E000BFFFF768FE80
:1007E000801B6428F0D828688003F7D420789A4EBC
:1007F00080074FF001094FF0000839D5686810F004
:100800000C0F07D06868C0F38100022809D168681E
:10081000C00306D42868800714D52069012808D1B0
:1008200010E02069B0B1C6F80090FFF741FE07461E
:1008300005E00AE1FFF73CFEC01B0228C4D8286887
:100840008007F7D52868616920F0F80040EAC10008
:1008500028600DE0C6F80080FFF72AFE074604E096
:10086000FFF726FEC01B022823D828688007F7D48C
:10087000207800072CD57948A169D9B1C0F800903B
:10088000FFF716FE074604E0FFF712FEC01B022822
:100890000FD8686A8007F7D571484FF4FA5100689D
:1008A000B0FBF1F0009000BF0098411E0091FAD219
:1008B0000EE080E0C0F80080FFF7FAFD074604E094
:1008C000FFF7F6FDC01B022875D8686A8007F7D4C9
:1008D0002078400760D5E8690027C00008D4E8699F
:1008E00040F08050E861E869012700F080500090F6
:1008F0005C480168C90513D40168834641F48071DE
:100900000160FFF7D5FD824606E000BFFFF7D0FD8E
:10091000A0EB0A0064284ED8DBF80000C005F5D52E
:10092000E06801280AD008B1052813D0286A20F011
:1009300001002862286A20F0040002E0286A40F0E2
:1009400001002862E06841F2883B98B1FFF7B0FDF2
:1009500082460BE0286A40F004002862EEE700BF00
:10096000FFF7A6FDA0EB0A0159455AD8286A80076F
:10097000F6D50CE0FFF79CFD824605E0FFF798FDF9
:10098000A0EB0A0159454CD8286A8007F6D41FB15C
:10099000E86920F08050E861E06988B36968C1F3D4
:1009A0008101022944D00228C6F8608004D0FFF7F4
:1009B0007FFD044638E034E0FFF77AFD074604E0A7
:1009C000FFF776FDC01B02282BD828688001F7D4DA
:1009D000206AB0F5803F05D16868A16820F4003036
:1009E00008436860D4E908010843696821F4741178
:1009F00008436860C6F86090FFF75AFD044606E0B9
:100A000025E000BFFFF754FD001B022809D8286825
:100A10008001F7D51BE000BFFFF74AFD001B02284D
:100A200002D90320BDE8F88F28688001F4D40EE0D5
:100A30000128F7D06868226A00F48031914204D11D
:100A4000616A00F47010884201D00120EAE70020BA
:100A5000E8E70000001002400000424280044242E9
:100A6000140000200070004010B5401EB0F1807FDF
:100A700001D3012010BD4FF0E02460610F21601709
:100A800000F05EFD0020A06107202061002010BD65
:100A900070B590F83C20012A26D0012480F83C4013
:100AA000022280F83D2003685A689D6822F0700693
:100AB0000A6832435A600D4B02689A4208D0B2F17C
:100AC000804F05D00A4B9A4202D00A4B9A4204D179
:100AD000496825F080031943916080F83D4000216A
:100AE00080F83C10084670BD022070BD002C01400B
:100AF000000400400008004010B5040003D094F842
:100B00003D0010B107E0012010BD002084F83C003A
:100B1000204600F01FF8022084F83D00211D2068C7
:100B200000F0ECFB012084F8460084F83E0084F8D5
:100B30003F0084F8400084F8410084F8420084F8C3
:100B4000430084F8440084F8450084F83D00002008
:100B500010BD000008B500680649884208D1064863
:100B6000C16941F00201C161C06900F0020000905A
:100B700008BD0000000400400010024070B50446AB
:100B800090F83C000025012817D0012684F83C602D
:100B9000022084F83D002068826822F0770222F467
:100BA0007F4282600868502838D00DDC20284FD062
:100BB00005DC90B3102811D14AE0022070BD302826
:100BC00046D040280AD13BE060282FD070280DD0B5
:100BD000B0F5805F03D0B0F5005F12D0012584F836
:100BE0003D60002084F83C00284670BDCB68D1E908
:100BF0000121206800F0CBFB2068816841F077017B
:100C000009E0CB68D1E90121206800F0C0FB206831
:100C1000816841F480418160E1E719E0CA68496870
:100C2000206800F069FC5021206806E0CA68496825
:100C3000206800F072FC6021206800F0B2FBCEE773
:100C4000CA684968206800F057FC40212068F4E732
:100C5000226801461046F0E72DE9F0410D460400F8
:100C600003D094F83D0018B108E00120BDE8F08100
:100C7000002084F83C00204600F040F8022084F870
:100C80003D002068816844F2070291438160211D84
:100C9000206800F033FB226890689169166A2B681F
:100CA000AF69034340F20330814341EA0721A8685A
:100CB000EF6908434FF6FC418843E96840EA0720A2
:100CC000014328692F6A000140EA07300843696838
:100CD0006D6926F0220646EA0515294393602268CD
:100CE000906154F8460B0162012004F81F09E07579
:100CF0002076E0762077A0750020B7E700B585B0B4
:100D000000210091019102910391194B0268194948
:100D100019489A4212D18A6942F400628A618A694A
:100D200002F4006204928A6942F004028A618969CD
:100D300001F0040104914FF4407113E0B2F1804FCF
:100D400014D1CA6942F00102CA61CA6902F0010203
:100D500004928A6942F004028A61896901F00401FF
:100D60000491032100916946FFF7A8FA05B000BD80
:100D7000002C0140001002400008014070B590F8BE
:100D80003E60044690F83F5090F8423090F843207F
:100D9000022021B104290ED0012E1BD114E0012E16
:100DA00018D1012B16D184F83E0084F842000122AC
:100DB0000021206820E0012D0CD1012A0AD184F8FD
:100DC0003F0084F8430014E0012D03D1012B01D131
:100DD000012A01D0012070BD84F83E0084F83F0054
:100DE00084F8420084F8430001220021206800F0CA
:100DF000C1FA01220421206800F0BCFA20680168D1
:100E000041F001010160002070BD000000B585B017
:100E10000021009101910291039100680B498842E1
:100E200011D10B48816941F00401816180696946F3
:100E300000F004000490C020009002200190039074
:100E40000448FFF73BFA05B000BD00000004004075
:100E5000001002400008014070B5044690F83C00C4
:100E600000260D4601280FD0012084F83C006AB10D
:100E7000042A1DD0082A2FD00C2A3FD0012600209A
:100E800084F83C00304670BD022070BD206800F040
:100E900091FA2068816941F00801816120688169C7
:100EA00021F004018161206881692A69114311E000
:100EB000206800F0A7FA2068816941F4006181612F
:100EC0002068816921F480618161206881692A69D3
:100ED00041EA02218161D2E7206800F0BFFA206870
:100EE000C16941F00801C1612068C16921F00401B4
:100EF000C1612068C1692A69114311E0206800F0CE
:100F0000D9FA2068C16941F40061C1612068C169F2
:100F100021F48061C1612068C1692A6941EA022126
:100F2000C161ACE710B5040003D094F83D0010B1E6
:100F300007E0012010BD002084F83C00204600F0AE
:100F40001EF8022084F83D00211D206800F0D6F92B
:100F5000012084F8460084F83E0084F83F0084F8BD
:100F6000400084F8410084F8420084F8430084F88B
:100F7000440084F8450084F83D00002010BD70470F
:100F800010B50446022249B104290ED0082913D015
:100F900094F84100012816D0012010BD94F83E00BD
:100FA0000128F9D184F83E200FE094F83F00012891
:100FB000F2D184F83F2008E094F840000128EBD1FA
:100FC00084F8402001E084F841200122206800F0EC
:100FD000D1F90F492068884203D1426C42F40042A3
:100FE00042642068884208D0B0F1804F05D009499A
:100FF000884202D00849884204D1816801F0070183
:10100000062903D0016841F001010160002010BDF4
:10101000002C01400004004000080040FEE70000F2
:101020002DE9F04186B000263748009601960296D9
:101030000396816941F010018161816901F010011D
:101040000491816941F004018161816901F0040129
:101050000491816941F00801816180692B4D00F0A4
:1010600008004FF400540490002221462846FFF760
:101070001AFA274F002224213846FFF714FA0122DA
:1010800018213846FFF70FFADFF888800022222166
:101090004046FFF708FA1120CDE900400224CDE9CF
:1010A000026469462846FFF709F93C2001250394AC
:1010B0008DE8610069463846FFF700F9CDE9025432
:1010C000CDE9004569464046FFF7F8F84FF4406027
:1010D000CDE90006694602953846FFF7EFF848204B
:1010E000CDE90006694602954046FFF7E7F8202063
:1010F0000090CDE90154694640460394FFF7DEF8BD
:1011000006B0BDE8F0810000001002400010014070
:1011100000080140000C014010B58CB02421684645
:10112000FFF752F800241648099414490A94C0E9BC
:1011300000144FF6FF71C0E902410461446184610B
:101140000120CDE90004CDE902040494CDE9054075
:10115000079469460A480894FFF77EFD08B1FFF737
:1011600098F8099409A906480A94FFF791FC002809
:1011700001D0FFF78EF80CB010BD0000002C01402C
:101180001800002010B58CB024216846FFF71CF829
:101190000024154809944FF080410A94C0E90014D6
:1011A0004FF6FF71C0E90241046184610120022110
:1011B000CDE90204CDE900010494CDE9054007948E
:1011C000694609480894FFF747FD08B1FFF761F841
:1011D000099409A904480A94FFF75AFC002801D091
:1011E000FFF757F80CB010BD6000002010B58EB0AE
:1011F00000240794089409940A940B941C216846CF
:101200000C94FEF7E1FF2448224901600721C0E960
:10121000011440F2E731C0E9031480218161FFF736
:101220006BFC08B1FFF735F84FF48050079007A921
:101230001948FFF7A3FC08B1FFF72BF81648FFF792
:1012400071FE08B1FFF725F80B940BA912480C9416
:10125000FFF71EFC08B1FFF71CF8602000904FF468
:101260009670CDE90104002269460B480494FFF70B
:10127000F3FD08B1FFF70DF8042269460648FFF7B1
:10128000EBFD08B1FFF705F80348FFF7BFFD0EB00F
:1012900010BD000000040040A8000020FEE7FEE7AB
:1012A00070477047FFF70AB910B590B0282168461B
:1012B000FEF78AFF14210AA8FEF786FF022000909D
:1012C0000120049010200024059007946846FFF741
:1012D0003BFA08B172B6FEE70F20CDE90A040C9480
:1012E0000D9400210AA80E94FFF772F9002801D08E
:1012F00072B6FEE710B010BD70470000F0B502688E
:10130000194B1A4C1A4D4FF08047984205D0B842FD
:1013100003D0A04201D0A84203D122F070064A684F
:101320003243984205D0B84203D0A04201D0A8422F
:1013300003D122F44074CA6822434C6922F080022F
:10134000224302608A68C2620A688262984201D1BE
:1013500009690163012141610169C90703D001697C
:1013600021F001010161F0BD002C014000040040AA
:101370000008004010B501F01F030121046A9940E4
:101380008C430462016A9A401143016210BD10B59A
:10139000846842EA032224F47F440A4322438260A1
:1013A00010BD826822F070020A4342F0070181609A
:1013B0007047000030B5036A026A22F0010202623F
:1013C0004268846924F073050C682C4323F00205FD
:1013D0008B682B430A4DA8420BD123F00805CB683C
:1013E00022F440722B434D6923F0040315438A69AC
:1013F0002A434260846149684163036230BD000052
:10140000002C014030B5026A036A23F01003036226
:10141000436884690D6824F4E64444EA05248D6831
:1014200022F0200242EA05120B4DA8420ED1CD68EF
:1014300022F0800242EA05124D6923F4406343EA38
:1014400085038D6922F0400243EA8503436084618D
:1014500049688163026230BD002C014030B5036AE7
:10146000026A22F4807202624268C46923F4007343
:1014700024F073050C682C438D6843EA05230C4D5A
:10148000A8420ED1CD6823F4006343EA05234D69D9
:1014900022F4405242EA05128D6923F4806342EA45
:1014A00005124260C4614968C163036230BD000037
:1014B000002C014030B5046A026A22F480520262B4
:1014C0004268C3690D6823F4E64343EA05238D6847
:1014D00024F4005444EA0534064DA84204D14D6971
:1014E00022F4804242EA85124260C3614968016485
:1014F000046230BD002C014010B5036A046A24F078
:1015000001040462846924F0F00444EA021423F024
:101510000A020A438461026210BD10B5036A046ABC
:1015200024F010040462846923F0A00324F47044BE
:1015300044EA023243EA01118261016210BDFEE712
:101540000907090E002804DB00F1E02080F80014F0
:10155000704700F00F0000F1E02080F8141D704784
:101560002DE9F04F87B0FEF7B1FFFFF79DFEFFF7C3
:1015700057FDFFF7D1FDFFF739FEFFF703FE00210E
:101580008E48FFF7FDFC04218C48FFF7F9FC002191
:101590008B48FFF7F3FB00218A48FFF7EFFB4FF082
:1015A0000009DFF824A2854CC8464FF4006BCDF843
:1015B00018900A20FEF770FE59468448FEF76EFF29
:1015C00020B9BAF902002168C83048630A20FEF742
:1015D00063FE4FF480617D48FEF760FF20B9BAF9E1
:1015E00000002168C83088630A20FEF755FE784E57
:1015F00008213046FEF752FF68B171480068406A22
:10160000704980B20968496A8EB2811B052936D0BB
:10161000491D34D040E02168002048632168886378
:10162000024602213046FEF73EFF40F6B830FEF794
:1016300033FE012202213046FEF735FF00254FF42C
:10164000FA77002220213046FEF72DFF3846FEF7BC
:1016500023FE012220213046FEF725FF3846FEF703
:101660001BFE6D1C012DECDD584E40F22625642733
:1016700040215748FEF712FF00287CD18AE04FF442
:101680009671AAF80210AAF8001022685163226825
:1016900091634FF00008C146BAF90010049191FB24
:1016A000F0F109B20191BAF90210039191FBF6F140
:1016B00009B20091BAF904105546884227D0081A99
:1016C00007B2019800F061F902900591484600F0D8
:1016D0005CF9404A404B00F06FF9059B029A00F01C
:1016E0006BF9059102900199049807FB010000F045
:1016F0004CF9059B029A00F071F800F017F900B25E
:1017000009EB070128800FFA81F921684863B5F9D0
:101710000600864227D0801B07B2009800F035F9FA
:1017200006464046019100F030F92A4A2A4B00F063
:1017300043F93246019B00F03FF9064601910399B7
:10174000009807FB001000F020F93246019B00F0E2
:1017500045F800F0EBF800B208EB070168800FFADB
:1017600081F82168886316480021006841621548A5
:101770000068416200E008E04FF4967068802880BD
:10178000216848632168886313E7206845632068FF
:1017900087636DE759463046FEF780FE0028F4D097
:1017A000216800204863216888630698401C0690E1
:1017B0000328E9DD07B00020BDE8F08FA800002075
:1017C00018000020600000200000002000080140F8
:1017D000000C01409A9999999999B93F10B591EAED
:1017E000030F48BF83F0004300F1EC81841A71EBD2
:1017F000030C05D2121943EB0C03001B61EB0C0127
:10180000DFF824E14FEA1154A4EB135C1EEA430F06
:1018100018BF9EEA445F73D023EA0E03DCF1200E6A
:1018200021EA045143F4801332D322FA0CFE10EB68
:101830000E0023FA0CFE41EB0E01CCF1200E03FA50
:101840000EFE10EB0E0051F10001B1F5801FCCF13E
:10185000200E32D201EB045112FA0EF2BDE8104014
:1018600058BF7047401C38BF5FEA420218BF70473C
:10187000002814BF20F0010041F100014FEA4103AC
:1018800013F5001F38BF7047A1F1C04100F08CB9BB
:10189000012A43EB0302ACF1200CDCF11F0E32BF36
:1018A0004FF0000E23FA0CF310EB030041EB045150
:1018B000B4EB115FD0D0A1EB045101F580114908C0
:1018C0005FEA300001EB04510ED350F1000038BF45
:1018D00012FA0EFE08D1BDE81040C9E7401C38BF1F
:1018E0005FEA4202CAD1C3E7BDE810404FEA4103B4
:1018F00013F5001F38BF7047A1F1C04100F054B983
:101900009EEA445F08D011EA5E0FBDE8104004BFB4
:1019100001F0004100207047BDE8104070B500F0B4
:10192000F5F800BF64FBBE3E0000E0FF4FEA410354
:101930004FEA5353A3F58063D3F11E03C8BFD3F11D
:10194000210C0CDD4FF0004242EAC12242EA505223
:1019500032FA03FC8CEAE17CACEBE1707047102BAF
:10196000C4BF0020704703F5787CBCF1FF3F04D072
:101970006FF0004282EA2100704770B500F0C6F8AF
:101980004992248000207047F2E710F0004248BFDF
:101990004042B0FA80F310FA03F10AD0C3F11D03FC
:1019A00003F580634FEA415002EB035202EBD12171
:1019B00070474FF000007047DFF848C170B51CEA6F
:1019C000111E1EBF1CEA13159EEA0C0F95EA0C0FA0
:1019D00000F06F8081EA030423EA4C134EEAD47EC0
:1019E00021EA4C1141F4801143F48013AE44A1FB71
:1019F000024CA0FB0365AEF17F7E361955EB0C055A
:101A0000A1FB034C4CF10003A0FB021C16EB0C06DF
:101A1000654153F10003094218BF46F0010613F473
:101A2000007F0BD14FEA03314FEA0530340341EA1E
:101A3000155140EA16506FF003020AE04FEAC32145
:101A40004FEAC520F40241EA555140EA56506FF082
:101A5000020202EB2E4201EB025585EACE710AD05A
:101A60005FEA440C18BF24F0004450F1000041F13B
:101A7000000120EAD47040F2FE7C624500D270BDC5
:101A8000A84214BF4FF080444FF04044002E08BFDE
:101A90000024BEF1806FA8BFA1F1C041BDE8704035
:101AA00080F282804FF0000001F1C04101F000415E
:101AB00070479EEA0C0F0CEA131518BF95EA0C0F3D
:101AC00006D04FF0000081EA030E0EF0004170BD19
:101AD00000F01CF88900013E00F007B800F009B8DA
:101AE0004FEA430C5FEA5C5C08D081EA030100F036
:101AF0005BB84FEA410C5FEA5C5CF6D14FF0000046
:101B0000014970470000FF070000F87F0EF1020E48
:101B10002EF0030E5EF8046B364205D4012A43EB27
:101B2000030515F5001F12D8012841EB010C1CF527
:101B3000001F0CD80ED14FEAD17C15F5001F0CEB1D
:101B40004C0C0CF1020C08BF4CEBD37C04E04FF0C2
:101B5000080C01E04FEAD37C0CEB4C0526FA05F6A5
:101B600006F00706B6F1040C06D20EEB860CBDE8B3
:101B700070404CF0010C6047DFE80CF0090B0202EA
:101B80004FF000414FF00000A1F5002170BD194653
:101B90001046012851EB010418BFD4F5001484BF8E
:101BA000002001F0004170BD0808A0F500114FEAC7
:101BB0003101704710B591EA030F48BF83F000432D
:101BC0003FF514AE841A71EB030C07D212198CF096
:101BD000004C43EB0C03001B61EB0C01DFF8A4E1AC
:101BE0004FEA1154A4EB135C1EEA430F18BF9EEAA0
:101BF000445F00F0B08023EA6E03524221EA0451B0
:101C0000C3EB6E0338BF5B1EDCF1200E25D322FA36
:101C10000CFE10EB0E0043FA0CFE41EB0E01CCF172
:101C2000200E03FA0EFE10EB0E0051F10001CCF174
:101C3000200E29D412FA0EF201EB0451BDE8104037
:101C400058BF7047401C1CBFB2F1004F70470028BE
:101C50000CBF491C20F00100704712EB020E43EB51
:101C6000030218BF4FF0010E4EEA4202ACF1200C05
:101C7000DCF11E0E54D943FA0CFE10EB0E0051F1AC
:101C8000FF31CCF11E0ED5D50EF1010E12FA0EFE6B
:101C9000404141EB010101EB445C5FEA5C5C10D91F
:101CA00010EBDE7001EB045138BFBEF1004FBDE810
:101CB000104018BF704700280CBF491C20F00100DD
:101CC000704730D24FEAD42C11F5001124F400648F
:101CD0001BD0B1FA81F20B3AA41AA41ED2F1200350
:101CE000914030FA03F31943904001EBCC71002C82
:101CF00001EB0451BDE81040A8BF704701F1C0419D
:101D00004FF0000001F000417047B0FA80F310FA84
:101D100003F100D110BDE41A173C4805C90AE4E7F5
:101D200001EB045110BD491001EB0451BDE8104016
:101D30004FEA300002E04FF0000170474A0008BF50
:101D40000042F8D0B2F5001F28BF704701F00041F3
:101D50004FF0000070479EEA445F07D011EA5E0F23
:101D6000BDE8104004BF002100207047BDE81040CE
:101D700070B5FFF7CBFE00BF40DFF63E83F00041B9
:101D8000104670470000E0FF010202030405060749
:101D900008090A0B0C0D0E0F1010000000000000C7
:101DA000000001020304060708090000CC1D00081A
:101DB000000000201800000028010008E41D0008B1
:101DC0001800002038070000440100082C012C01F5
:101DD00014001400010000001000000000000000CA
:041DE00000127A0073
:04000005080000ED02
:00000001FF
